:100000006DC00000A0C0000084C0000082C00000DD
:1000100080C000002DC200007CC000007AC000003B
:1000200078C0000076C0000074C00000E7C1000086
:1000300070C000006EC000006CC000006AC000000C
:1000400068C0000066C0000064C0000062C000001C
:1000500060C000005EC000005CC000005AC000002C
:1000600058C0000056C000000403090420036300C8
:1000700068006100660061006C006C006100640053
:10008000610073002E0063006F006D0016037500A1
:1000900073006200500065006C0074006900650028
:1000A00072000E0350004C0054003000300031004C
:1000B00012011001FF000008C016DC05000101025A
:1000C0000301090219000101008032090400000146
:1000D000000000000705810308000A0011241FBE6C
:1000E000CFEFD4E0DEBFCDBF11E0A0E0B1E0ECEF98
:1000F000FAE002C005900D92A033B107D9F711E0E4
:10010000A0E3B1E001C01D92AD37B107E1F76AD2BB
:10011000F3C476CFA82FB92F80E090E041E050EAF9
:10012000609530E009C02D9182279795879510F052
:1001300084279527305EC8F36F5FA8F30895EADF40
:100140008D939D930895CF93CFB7CF93DF93C395AE
:100150004F9BE9F74F9B0BC04F9B09C04F9B07C0BC
:100160004F9B05C04F9B03C04F9B01C08BC06F933B
:10017000C0916001DD27C959DE4F2F9365E54F9B84
:1001800003C02F916F91E6CF0F931F934F9320E001
:1001900040E15F9309B1047807FB27F93F9350E0F2
:1001A0003BE039C0147840642F77012F5F5F1EC099
:1001B000406819B114782F7752501FC0406409B1BC
:1001C0002F770478D1F15F5F00C023C0406219B17E
:1001D0002F77147891F15F5F00C025C00478102755
:1001E000515012F45D5F0000115027952C3F19B15A
:1001F000C8F614780127015027952C3FC8F64227EE
:10020000499309B1047810274F73115027952C3F5B
:10021000A8F64695469519B1147879F00127015052
:1002200027952C3F98F66B5A60F3315009B1B0F620
:1002300000C011E01CBB002719C03B503195C31B07
:10024000D04011E01CBB0881033C09F10B34F9F0EC
:1002500020915E011981110F1213EDCF4A81441FC5
:10026000093651F10D3211F0013E29F70093650175
:100270003F915F914F911F910F912F916F91CCB34F
:10028000C0FD65CFDF91CF91CFBFCF911895209161
:100290006501222369F310916301112391F5343034
:1002A00092F13093630120935F01109160013BE074
:1002B000311B3093600127C00091630101300CF5C0
:1002C0000AE54F7049F430912E0134FD1DC00093B2
:1002D0002E01C7E4D1E01CC03091520134FD14C09E
:1002E00000935201C3E5D1E013C0052710E000C020
:1002F00000000BB91AC0052710E0221F1DC010E036
:1003000021C04AE502C032ED432FC4E1D0E032E023
:100310001AB114685F9A0BB11AB954E820E865E382
:1003200020FF05270BB9279517951C3FF0F666951A
:10033000B8F7B1F720FF05270BB9279517951C3F94
:10034000D0F62795179517FF052700001C3F0BB91E
:10035000B0F629913A9519F70B7710916401110FB6
:10036000C651D0400BB911F010935E0111E01CBBD7
:1003700000681AB11B77402F4B7754E05A95F1F77C
:100380000BB91AB94BB974CF40914501E0914401C2
:10039000DC0190E007C0F0E0E25EFE4F8D918083CB
:1003A0009F5FE22FE41720F42E2F2F5F961798F30C
:1003B000E093440180911E0180931601982F809351
:1003C00006011092070180FF05C0109239011092BA
:1003D000380104C080911F0180933E0191FF05C048
:1003E000109239011092380104C08091200180934D
:1003F0003F0180E0E41709F481E008951F920F9215
:100400000FB60F9211242F938F939F9380913A01EF
:1004100090913B01019690933B0180933A0180912A
:100420003C0190913D01019690933D0180933C01E8
:100430008091380190913901019690933901809310
:10044000380180910801882359F080913A019091F8
:100450003B018151974224F010923B0110923A01E6
:100460009F918F912F910F900FBE0F901F90189515
:1004700078941F920F920FB60F9211242F938F939F
:100480009F93AF93BF9389B190910B0129B12093B2
:100490000B019827292F91FF17C085B192E089277A
:1004A00085B98091300190913101A0913201B091D4
:1004B00033010196A11DB11D80933001909331014C
:1004C000A0933201B093330124FF17C085B191E0AE
:1004D000892785B98091340190913501A091360129
:1004E000B09137010196A11DB11D80933401909305
:1004F0003501A0933601B0933701BF91AF919F9121
:100500008F912F910F900FBE0F901F901895FC01A7
:1005100081818230F9F0833038F4882309F454C0A3
:10052000813009F04FC006C0833059F1843009F0A2
:1005300049C01FC081E090E060910601CFD282E007
:1005400090E060913E01CAD283E090E060913F016B
:10055000C5D20FC081E090E0B9D28093160182E04D
:1005600090E0B4D280930F0183E090E0AFD280930B
:1005700011018EE091E0909362018093610180E12E
:10058000089580E090E064E5A9D281E090E067E022
:10059000A5D282E090E060E8A1D283E090E060E83C
:1005A0009DD281E090E092D28093060110920701E3
:1005B00082E090E08BD280933E0183E090E086D28F
:1005C00080933F0180E008958681809345011092D9
:1005D0004401813110F48FEF089580E1809345014B
:1005E0008FEF08951F93CF93DF9380E090E06ED25A
:1005F000843581F080E090E064E570D281E090E0A5
:1006000067E06CD282E090E060E868D283E090E03E
:1006100060E864D281E090E059D2809306011092A4
:10062000070182E090E052D2182F80933E0183E0D0
:1006300090E04CD280933F0194B19B6094B99AB101
:1006400098669AB922989AB19D7E9AB99FE798B90F
:100650009BB192619BB990918100986090938100C9
:1006600090916F00926090936F0023EA24BD99E00F
:1006700095BD2093B00092E09093B1009FEF9093CE
:10068000B30097BD1093B40088BD2EE088E190E0E0
:100690000FB6F894A895809360000FBE2093600079
:1006A000D2D0579A20E040E45FE1A895CA010197B3
:1006B000F1F72F5F2A3FC9F757988091680084604F
:1006C0008093680080916D00806180936D008091BF
:1006D0006D00826080936D0078948EE390E090933B
:1006E00089008093880080918100846080938100DC
:1006F00011E0A895B5D080913C0190913D018436E0
:100700009105DCF12091060120FF15C090913E017A
:1007100080910C01882311F48FEF01C081E0890FD3
:1007200080933E018F3F19F410920C0104C088237E
:1007300011F410930C0180913E0188BD21FF15C07A
:1007400090913F0180910D01882311F48FEF01C03A
:1007500081E0890F80933F018F3F19F410920D01C2
:1007600004C0882311F410930D0180913F01809300
:10077000B40010923D0110923C01C0913801D0911B
:100780003901C436D1050CF4B4CF10920E0188B5EE
:1007900080930F01109210018091B4008093110199
:1007A000609130017091310180913201909133015B
:1007B0002EE231E040E050E06AD1272F382F492F58
:1007C000552747FD5A9520931201609313016091BC
:1007D00034017091350180913601909137012EE2FC
:1007E00031E040E050E053D160934001709341010B
:1007F0008093420190934301272F382F492F55278B
:1008000047FD5A95209314016093150110921A0127
:10081000C0931B0110921C0110921D01109239010E
:100820001092380110923001109231011092320171
:10083000109233011092340110923501109236015A
:100840001092370156CFE9E6F0E080818260808324
:10085000E89A8BE4809353018AE5809352010895CE
:100860001F93CF93DF9360916301635067FDB8C01E
:1008700080916001CCE0D0E0C81BD109C959DE4F9E
:1008800080915F018D3209F099C0683009F0A6C0EF
:1008900083EC809347018AE580932E0110924601F4
:1008A0008881807639F0CE0132DE282F8F3F09F41F
:1008B00074C07AC09A81109250018981882321F4F2
:1008C0001092510122E062C0853019F490936401C6
:1008D0005CC0863009F045C08B81813041F480EBEB
:1008E00090E0909362018093610122E136C08230F2
:1008F00041F482EC90E0909362018093610129E1E0
:100900002CC0833049F58A81882341F488E690E041
:10091000909362018093610124E01FC0813041F413
:100920008CE690E0909362018093610120E215C013
:10093000823041F48CE890E09093620180936101F1
:1009400026E10BC0833041F482EA90E0909362018B
:10095000809361012EE001C020E080E48093460195
:1009600023C0883021F421E086E691E011C089306F
:1009700019F49093660109C08A3011F421E006C091
:100980008B3019F48BE48093530120E080E591E0F3
:10099000909362018093610107C0888187FD2E8159
:1009A00080E88093460106C08F81882319F48E81E8
:1009B000821708F0822F80932F0110C0809146018A
:1009C00087FF0CC0CE01E0DC8F3F21F48EE18093E5
:1009D0002E0104C0882311F010922F0110926301A0
:1009E00080912E0184FF45C080912F018F3F09F433
:1009F00040C0182F893008F018E0811B80932F0128
:100A00008091470198E8892780934701112321F1BC
:100A100020916101309162018091460186FF0AC0F8
:100A2000912FF901A8E4B1E084918D933196915012
:100A3000D9F708C0912FD901E8E4F1E08D918193B5
:100A40009150E1F7C90101961150810F911D1F5F6F
:100A5000909362018093610188E491E0612F6FDBE4
:100A6000612F6C5F6C3019F08FEF80932F016093D2
:100A70002E0194E189B1847831F49150D9F7109224
:100A8000640110925E01DF91CF911F910895629FE2
:100A9000D001739FF001829FE00DF11D649FE00D76
:100AA000F11D929FF00D839FF00D749FF00D659FD7
:100AB000F00D9927729FB00DE11DF91F639FB00DD6
:100AC000E11DF91FBD01CF0111240895F999FECF51
:100AD00092BD81BDF89A992780B50895262FF9997E
:100AE000FECF1FBA92BD81BD20BD0FB6F894FA9A11
:0C0AF000F99A0FBE01960895F894FFCF0C
:100AFC000100010001000700010A00FF0101303074
:100B0C0030303030303061616161303030304865C8
:100B1C006C6C6F2C205553422100000000005AFFD2
:00000001FF
